{
  "contractName": "ItemManager",
  "abi": [
    {
      "anonymous": false,
      "inputs": [
        {
          "indexed": true,
          "internalType": "address",
          "name": "previousOwner",
          "type": "address"
        },
        {
          "indexed": true,
          "internalType": "address",
          "name": "newOwner",
          "type": "address"
        }
      ],
      "name": "OwnershipTransferred",
      "type": "event"
    },
    {
      "anonymous": false,
      "inputs": [
        {
          "indexed": false,
          "internalType": "uint256",
          "name": "_itemIndex",
          "type": "uint256"
        },
        {
          "indexed": false,
          "internalType": "uint256",
          "name": "_step",
          "type": "uint256"
        },
        {
          "indexed": false,
          "internalType": "address",
          "name": "_itemAddress",
          "type": "address"
        }
      ],
      "name": "SupplyChainStep",
      "type": "event"
    },
    {
      "inputs": [],
      "name": "itemIndex",
      "outputs": [
        {
          "internalType": "uint256",
          "name": "",
          "type": "uint256"
        }
      ],
      "stateMutability": "view",
      "type": "function",
      "constant": true
    },
    {
      "inputs": [
        {
          "internalType": "uint256",
          "name": "",
          "type": "uint256"
        }
      ],
      "name": "items",
      "outputs": [
        {
          "internalType": "contract Item",
          "name": "_item",
          "type": "address"
        },
        {
          "internalType": "string",
          "name": "_identifier",
          "type": "string"
        },
        {
          "internalType": "uint256",
          "name": "_itemPrice",
          "type": "uint256"
        },
        {
          "internalType": "uint256",
          "name": "_itemIndex",
          "type": "uint256"
        },
        {
          "internalType": "enum ItemManager.SupplyChainState",
          "name": "_state",
          "type": "uint8"
        }
      ],
      "stateMutability": "view",
      "type": "function",
      "constant": true
    },
    {
      "inputs": [],
      "name": "owner",
      "outputs": [
        {
          "internalType": "address",
          "name": "",
          "type": "address"
        }
      ],
      "stateMutability": "view",
      "type": "function",
      "constant": true
    },
    {
      "inputs": [],
      "name": "renounceOwnership",
      "outputs": [],
      "stateMutability": "nonpayable",
      "type": "function"
    },
    {
      "inputs": [
        {
          "internalType": "address",
          "name": "newOwner",
          "type": "address"
        }
      ],
      "name": "transferOwnership",
      "outputs": [],
      "stateMutability": "nonpayable",
      "type": "function"
    },
    {
      "inputs": [
        {
          "internalType": "string",
          "name": "_identifier",
          "type": "string"
        },
        {
          "internalType": "uint256",
          "name": "_itemPrice",
          "type": "uint256"
        }
      ],
      "name": "createItem",
      "outputs": [],
      "stateMutability": "nonpayable",
      "type": "function"
    },
    {
      "inputs": [
        {
          "internalType": "uint256",
          "name": "_itemIndex",
          "type": "uint256"
        }
      ],
      "name": "triggerPayment",
      "outputs": [],
      "stateMutability": "payable",
      "type": "function",
      "payable": true
    },
    {
      "inputs": [
        {
          "internalType": "uint256",
          "name": "_itemIndex",
          "type": "uint256"
        }
      ],
      "name": "triggerDelivery",
      "outputs": [],
      "stateMutability": "nonpayable",
      "type": "function"
    }
  ],
  "bytecode": "0x608060405234801561001057600080fd5b5060006100216100c460201b60201c565b9050806000806101000a81548173ffffffffffffffffffffffffffffffffffffffff021916908373ffffffffffffffffffffffffffffffffffffffff1602179055508073ffffffffffffffffffffffffffffffffffffffff16600073ffffffffffffffffffffffffffffffffffffffff167f8be0079c531659141344cd1fd0a4f28419497f9722a3daafe3b4186f6b6457e060405160405180910390a3506100cc565b600033905090565b611dd7806100db6000396000f3fe608060405260043610620000865760003560e01c8063bfb231d21162000055578063bfb231d21462000123578063cd31831e146200016b578063e07bb1a71462000199578063f2fde38b14620001c95762000086565b8063715018a6146200008b578063800fb83f14620000a55780638c55174214620000c55780638da5cb5b14620000f3575b600080fd5b3480156200009857600080fd5b50620000a3620001f7565b005b620000c36004803603810190620000bd919062000f25565b62000338565b005b348015620000d257600080fd5b50620000f16004803603810190620000eb919062000ecb565b620005a5565b005b3480156200010057600080fd5b506200010b62000851565b6040516200011a919062001083565b60405180910390f35b3480156200013057600080fd5b506200014f600480360381019062000149919062000f25565b6200087a565b60405162000162959493929190620010dd565b60405180910390f35b3480156200017857600080fd5b5062000197600480360381019062000191919062000f25565b6200096d565b005b348015620001a657600080fd5b50620001b162000b80565b604051620001c09190620011c9565b60405180910390f35b348015620001d657600080fd5b50620001f56004803603810190620001ef919062000e9f565b62000b86565b005b6200020162000d39565b73ffffffffffffffffffffffffffffffffffffffff166200022162000851565b73ffffffffffffffffffffffffffffffffffffffff16146200027a576040517f08c379a0000000000000000000000000000000000000000000000000000000008152600401620002719062001185565b60405180910390fd5b600073ffffffffffffffffffffffffffffffffffffffff1660008054906101000a900473ffffffffffffffffffffffffffffffffffffffff1673ffffffffffffffffffffffffffffffffffffffff167f8be0079c531659141344cd1fd0a4f28419497f9722a3daafe3b4186f6b6457e060405160405180910390a360008060006101000a81548173ffffffffffffffffffffffffffffffffffffffff021916908373ffffffffffffffffffffffffffffffffffffffff160217905550565b3460016000838152602001908152602001600020600201541462000393576040517f08c379a00000000000000000000000000000000000000000000000000000000081526004016200038a90620011a7565b60405180910390fd5b60006002811115620003ce577f4e487b7100000000000000000000000000000000000000000000000000000000600052602160045260246000fd5b6001600083815260200190815260200160002060040160009054906101000a900460ff1660028111156200042b577f4e487b7100000000000000000000000000000000000000000000000000000000600052602160045260246000fd5b146200046e576040517f08c379a0000000000000000000000000000000000000000000000000000000008152600401620004659062001163565b60405180910390fd5b600180600083815260200190815260200160002060040160006101000a81548160ff02191690836002811115620004ce577f4e487b7100000000000000000000000000000000000000000000000000000000600052602160045260246000fd5b02179055507fa4035636e99f06b7651a604c1019fa4e8779fe68ef27eeb74dff2de348f6199b816001600084815260200190815260200160002060040160009054906101000a900460ff16600281111562000552577f4e487b7100000000000000000000000000000000000000000000000000000000600052602160045260246000fd5b6001600085815260200190815260200160002060000160009054906101000a900473ffffffffffffffffffffffffffffffffffffffff166040516200059a93929190620011e6565b60405180910390a150565b620005af62000d39565b73ffffffffffffffffffffffffffffffffffffffff16620005cf62000851565b73ffffffffffffffffffffffffffffffffffffffff161462000628576040517f08c379a00000000000000000000000000000000000000000000000000000000081526004016200061f9062001185565b60405180910390fd5b600030826002546040516200063d9062000d41565b6200064b93929190620010a0565b604051809103906000f08015801562000668573d6000803e3d6000fd5b5090508060016000600254815260200190815260200160002060000160006101000a81548173ffffffffffffffffffffffffffffffffffffffff021916908373ffffffffffffffffffffffffffffffffffffffff160217905550826001600060025481526020019081526020016000206001019080519060200190620006f092919062000d4f565b50816001600060025481526020019081526020016000206002018190555060025460016000600254815260200190815260200160002060030181905550600060016000600254815260200190815260200160002060040160006101000a81548160ff0219169083600281111562000790577f4e487b7100000000000000000000000000000000000000000000000000000000600052602160045260246000fd5b02179055507fa4035636e99f06b7651a604c1019fa4e8779fe68ef27eeb74dff2de348f6199b60025460016000600254815260200190815260200160002060040160009054906101000a900460ff16600281111562000818577f4e487b7100000000000000000000000000000000000000000000000000000000600052602160045260246000fd5b836040516200082a93929190620011e6565b60405180910390a160026000815480929190620008479062001406565b9190505550505050565b60008060009054906101000a900473ffffffffffffffffffffffffffffffffffffffff16905090565b60016020528060005260406000206000915090508060000160009054906101000a900473ffffffffffffffffffffffffffffffffffffffff1690806001018054620008c5906200139a565b80601f0160208091040260200160405190810160405280929190818152602001828054620008f3906200139a565b8015620009445780601f10620009185761010080835404028352916020019162000944565b820191906000526020600020905b8154815290600101906020018083116200092657829003601f168201915b5050505050908060020154908060030154908060040160009054906101000a900460ff16905085565b60016002811115620009a8577f4e487b7100000000000000000000000000000000000000000000000000000000600052602160045260246000fd5b6001600083815260200190815260200160002060040160009054906101000a900460ff16600281111562000a05577f4e487b7100000000000000000000000000000000000000000000000000000000600052602160045260246000fd5b1462000a48576040517f08c379a000000000000000000000000000000000000000000000000000000000815260040162000a3f9062001163565b60405180910390fd5b60026001600083815260200190815260200160002060040160006101000a81548160ff0219169083600281111562000aa9577f4e487b7100000000000000000000000000000000000000000000000000000000600052602160045260246000fd5b02179055507fa4035636e99f06b7651a604c1019fa4e8779fe68ef27eeb74dff2de348f6199b816001600084815260200190815260200160002060040160009054906101000a900460ff16600281111562000b2d577f4e487b7100000000000000000000000000000000000000000000000000000000600052602160045260246000fd5b6001600085815260200190815260200160002060000160009054906101000a900473ffffffffffffffffffffffffffffffffffffffff1660405162000b7593929190620011e6565b60405180910390a150565b60025481565b62000b9062000d39565b73ffffffffffffffffffffffffffffffffffffffff1662000bb062000851565b73ffffffffffffffffffffffffffffffffffffffff161462000c09576040517f08c379a000000000000000000000000000000000000000000000000000000000815260040162000c009062001185565b60405180910390fd5b600073ffffffffffffffffffffffffffffffffffffffff168173ffffffffffffffffffffffffffffffffffffffff16141562000c7c576040517f08c379a000000000000000000000000000000000000000000000000000000000815260040162000c739062001141565b60405180910390fd5b8073ffffffffffffffffffffffffffffffffffffffff1660008054906101000a900473ffffffffffffffffffffffffffffffffffffffff1673ffffffffffffffffffffffffffffffffffffffff167f8be0079c531659141344cd1fd0a4f28419497f9722a3daafe3b4186f6b6457e060405160405180910390a3806000806101000a81548173ffffffffffffffffffffffffffffffffffffffff021916908373ffffffffffffffffffffffffffffffffffffffff16021790555050565b600033905090565b61076b806200163783390190565b82805462000d5d906200139a565b90600052602060002090601f01602090048101928262000d81576000855562000dcd565b82601f1062000d9c57805160ff191683800117855562000dcd565b8280016001018555821562000dcd579182015b8281111562000dcc57825182559160200191906001019062000daf565b5b50905062000ddc919062000de0565b5090565b5b8082111562000dfb57600081600090555060010162000de1565b5090565b600062000e1662000e10846200124c565b62001223565b90508281526020810184848401111562000e2f57600080fd5b62000e3c84828562001355565b509392505050565b60008135905062000e558162001602565b92915050565b600082601f83011262000e6d57600080fd5b813562000e7f84826020860162000dff565b91505092915050565b60008135905062000e99816200161c565b92915050565b60006020828403121562000eb257600080fd5b600062000ec28482850162000e44565b91505092915050565b6000806040838503121562000edf57600080fd5b600083013567ffffffffffffffff81111562000efa57600080fd5b62000f088582860162000e5b565b925050602062000f1b8582860162000e88565b9150509250929050565b60006020828403121562000f3857600080fd5b600062000f488482850162000e88565b91505092915050565b62000f5c816200129e565b82525050565b62000f6d81620012f1565b82525050565b62000f7e8162001319565b82525050565b62000f8f8162001341565b82525050565b600062000fa28262001282565b62000fae81856200128d565b935062000fc081856020860162001364565b62000fcb8162001510565b840191505092915050565b600062000fe56026836200128d565b915062000ff28262001521565b604082019050919050565b60006200100c6019836200128d565b9150620010198262001570565b602082019050919050565b6000620010336020836200128d565b9150620010408262001599565b602082019050919050565b60006200105a601c836200128d565b91506200106782620015c2565b602082019050919050565b6200107d81620012e7565b82525050565b60006020820190506200109a600083018462000f51565b92915050565b6000606082019050620010b7600083018662000f62565b620010c6602083018562001072565b620010d5604083018462001072565b949350505050565b600060a082019050620010f4600083018862000f73565b818103602083015262001108818762000f95565b905062001119604083018662001072565b62001128606083018562001072565b62001137608083018462000f84565b9695505050505050565b600060208201905081810360008301526200115c8162000fd6565b9050919050565b600060208201905081810360008301526200117e8162000ffd565b9050919050565b60006020820190508181036000830152620011a08162001024565b9050919050565b60006020820190508181036000830152620011c2816200104b565b9050919050565b6000602082019050620011e0600083018462001072565b92915050565b6000606082019050620011fd600083018662001072565b6200120c602083018562001072565b6200121b604083018462000f51565b949350505050565b60006200122f62001242565b90506200123d8282620013d0565b919050565b6000604051905090565b600067ffffffffffffffff8211156200126a5762001269620014e1565b5b620012758262001510565b9050602081019050919050565b600081519050919050565b600082825260208201905092915050565b6000620012ab82620012c7565b9050919050565b6000819050620012c282620015eb565b919050565b600073ffffffffffffffffffffffffffffffffffffffff82169050919050565b6000819050919050565b6000620012fe8262001305565b9050919050565b60006200131282620012c7565b9050919050565b600062001326826200132d565b9050919050565b60006200133a82620012c7565b9050919050565b60006200134e82620012b2565b9050919050565b82818337600083830152505050565b60005b838110156200138457808201518184015260208101905062001367565b8381111562001394576000848401525b50505050565b60006002820490506001821680620013b357607f821691505b60208210811415620013ca57620013c9620014b2565b5b50919050565b620013db8262001510565b810181811067ffffffffffffffff82111715620013fd57620013fc620014e1565b5b80604052505050565b60006200141382620012e7565b91507fffffffffffffffffffffffffffffffffffffffffffffffffffffffffffffffff82141562001449576200144862001454565b5b600182019050919050565b7f4e487b7100000000000000000000000000000000000000000000000000000000600052601160045260246000fd5b7f4e487b7100000000000000000000000000000000000000000000000000000000600052602160045260246000fd5b7f4e487b7100000000000000000000000000000000000000000000000000000000600052602260045260246000fd5b7f4e487b7100000000000000000000000000000000000000000000000000000000600052604160045260246000fd5b6000601f19601f8301169050919050565b7f4f776e61626c653a206e6577206f776e657220697320746865207a65726f206160008201527f6464726573730000000000000000000000000000000000000000000000000000602082015250565b7f4974656d2069732066757468657220696e206120636861696e00000000000000600082015250565b7f4f776e61626c653a2063616c6c6572206973206e6f7420746865206f776e6572600082015250565b7f4f6e6c792066756c6c79207061796d656e742061707063657074656400000000600082015250565b60038110620015ff57620015fe62001483565b5b50565b6200160d816200129e565b81146200161957600080fd5b50565b6200162781620012e7565b81146200163357600080fd5b5056fe608060405234801561001057600080fd5b5060405161076b38038061076b833981810160405281019061003291906100b3565b82600360006101000a81548173ffffffffffffffffffffffffffffffffffffffff021916908373ffffffffffffffffffffffffffffffffffffffff160217905550816000819055508060028190555050505061017e565b60008151905061009881610150565b92915050565b6000815190506100ad81610167565b92915050565b6000806000606084860312156100c857600080fd5b60006100d686828701610089565b93505060206100e78682870161009e565b92505060406100f88682870161009e565b9150509250925092565b600061010d82610126565b9050919050565b600061011f82610102565b9050919050565b600073ffffffffffffffffffffffffffffffffffffffff82169050919050565b6000819050919050565b61015981610114565b811461016457600080fd5b50565b61017081610146565b811461017b57600080fd5b50565b6105de8061018d6000396000f3fe6080604052600436106100385760003560e01c80632986c0e5146102505780633c8da5881461027b57806389794d00146102a657610241565b3661024157600060015414610082576040517f08c379a0000000000000000000000000000000000000000000000000000000008152600401610079906103e3565b60405180910390fd5b60005434146100c6576040517f08c379a00000000000000000000000000000000000000000000000000000000081526004016100bd906103c3565b60405180910390fd5b34600160008282546100d89190610445565b925050819055506000600360009054906101000a900473ffffffffffffffffffffffffffffffffffffffff1673ffffffffffffffffffffffffffffffffffffffff163460025460405160240161012e9190610403565b6040516020818303038152906040527f800fb83f000000000000000000000000000000000000000000000000000000007bffffffffffffffffffffffffffffffffffffffffffffffffffffffff19166020820180517bffffffffffffffffffffffffffffffffffffffffffffffffffffffff83818316178352505050506040516101b8919061038c565b60006040518083038185875af1925050503d80600081146101f5576040519150601f19603f3d011682016040523d82523d6000602084013e6101fa565b606091505b505090508061023e576040517f08c379a0000000000000000000000000000000000000000000000000000000008152600401610235906103a3565b60405180910390fd5b50005b34801561024d57600080fd5b50005b34801561025c57600080fd5b506102656102d1565b6040516102729190610403565b60405180910390f35b34801561028757600080fd5b506102906102d7565b60405161029d9190610403565b60405180910390f35b3480156102b257600080fd5b506102bb6102dd565b6040516102c89190610403565b60405180910390f35b60025481565b60005481565b60015481565b60006102ee8261041e565b6102f88185610429565b93506103088185602086016104a5565b80840191505092915050565b6000610321603083610434565b915061032c82610507565b604082019050919050565b6000610344601b83610434565b915061034f82610556565b602082019050919050565b6000610367601483610434565b91506103728261057f565b602082019050919050565b6103868161049b565b82525050565b600061039882846102e3565b915081905092915050565b600060208201905081810360008301526103bc81610314565b9050919050565b600060208201905081810360008301526103dc81610337565b9050919050565b600060208201905081810360008301526103fc8161035a565b9050919050565b6000602082019050610418600083018461037d565b92915050565b600081519050919050565b600081905092915050565b600082825260208201905092915050565b60006104508261049b565b915061045b8361049b565b9250827fffffffffffffffffffffffffffffffffffffffffffffffffffffffffffffffff038211156104905761048f6104d8565b5b828201905092915050565b6000819050919050565b60005b838110156104c35780820151818401526020810190506104a8565b838111156104d2576000848401525b50505050565b7f4e487b7100000000000000000000000000000000000000000000000000000000600052601160045260246000fd5b7f546865207472616e73616374696f6e207761736e27742073756363657373667560008201527f6c2c2063616e63656c696e67202e2e2e00000000000000000000000000000000602082015250565b7f4f6e6c792066756c6c79207061796d656e742061636365707465640000000000600082015250565b7f4974656d20697320616c7265616479207061696400000000000000000000000060008201525056fea2646970667358221220e36cd175809139192ebba6e5fd0eca588c404317326da9dd12c68a2511c9d8bc64736f6c63430008010033a2646970667358221220a0ad6834796408b1f05d3dbea885499f0ec0045df0512836b4c78b1a1b555b2e64736f6c63430008010033",
  "immutableReferences": {},
  "source": "// SPDX-License-Identifier: GPL-3.0\npragma solidity ^0.8.1;\n\nimport \"./Ownable.sol\";\nimport \"./Item.sol\";\n\ncontract ItemManager is Ownable {\n    \n    enum SupplyChainState{\n        Created,\n        Paid,\n        Delivered\n    }\n    \n    struct S_Item{\n        Item _item;\n        string _identifier;\n        uint _itemPrice;\n        uint _itemIndex;\n        SupplyChainState _state;\n    }\n    \n    mapping(uint => S_Item) public items;\n    uint public itemIndex;\n    \n    event SupplyChainStep(uint _itemIndex, uint _step, address _itemAddress);\n    \n    function createItem(string memory _identifier, uint _itemPrice) public onlyOwner{\n        Item item = new Item(this, _itemPrice, itemIndex);\n        items[itemIndex]._item = item;\n        items[itemIndex]._identifier = _identifier;\n        items[itemIndex]._itemPrice = _itemPrice;\n        items[itemIndex]._itemIndex = itemIndex;\n        items[itemIndex]._state = SupplyChainState.Created;\n        \n        emit SupplyChainStep(itemIndex, uint(items[itemIndex]._state), address(item));\n        itemIndex++;\n    }\n    \n    function triggerPayment(uint _itemIndex) public payable {\n        require(items[_itemIndex]._itemPrice == msg.value, \"Only fully payment appcepted\");\n        require(items[_itemIndex]._state == SupplyChainState.Created, \"Item is futher in a chain\");\n        \n        items[_itemIndex]._state = SupplyChainState.Paid;\n        emit SupplyChainStep(_itemIndex, uint(items[_itemIndex]._state), address(items[_itemIndex]._item));\n    }\n    \n    function triggerDelivery(uint _itemIndex) public {\n        require(items[_itemIndex]._state == SupplyChainState.Paid, \"Item is futher in a chain\");\n        \n        items[_itemIndex]._state = SupplyChainState.Delivered;\n        emit SupplyChainStep(_itemIndex, uint(items[_itemIndex]._state), address(items[_itemIndex]._item));\n    }\n}",
  "sourcePath": "/app/contracts/ItemManager.sol",
  "compiler": {
    "name": "solc",
    "version": "0.8.1+commit.df193b15.Emscripten.clang"
  },
  "schemaVersion": "3.4.1",
  "updatedAt": "2021-05-15T01:49:34.162Z",
  "networkType": "ethereum",
  "devdoc": {
    "kind": "dev",
    "methods": {
      "owner()": {
        "details": "Returns the address of the current owner."
      },
      "renounceOwnership()": {
        "details": "Leaves the contract without owner. It will not be possible to call `onlyOwner` functions anymore. Can only be called by the current owner. NOTE: Renouncing ownership will leave the contract without an owner, thereby removing any functionality that is only available to the owner."
      },
      "transferOwnership(address)": {
        "details": "Transfers ownership of the contract to a new account (`newOwner`). Can only be called by the current owner."
      }
    },
    "version": 1
  },
  "userdoc": {
    "kind": "user",
    "methods": {},
    "version": 1
  }
}